:100000000C9449000C945B000C945B000C945B0016
:100010000C945B000C945B000C945B000C945B00F4
:100020000C945B000C945B000C945B000C945B00E4
:100030000C945B000C945B000C945B000C945B00D4
:100040000C945B000C945B000C94CE000C945B0051
:100050000C945B000C945B000C94A4000C945B006B
:100060000C945B000C945B000C945B000C945B00A4
:100070000C945B000C945B000C945B006101D30159
:100080004B02AD02DD0215035103D4035F045F018F
:100090003F0511241FBECFEFD8E0DEBFCDBF11E07A
:1000A000A0E0B1E001C01D92AC31B107E1F70E94C0
:1000B000E7060C94F0060C940000CF93E1E6F0E024
:1000C00080E88083108288E184B9C1E0C093680031
:1000D00084E080936A0085B90E940E0180E38093DA
:1000E000DB008FEF80930D018DE091E0909317017D
:1000F0008093160110921A01C093150180E890E0D8
:10010000909312018093110182E090E0909310018E
:1001100080930F018BE191E0909309018093080196
:1001200010920C01C093070181E890E090930401C4
:100130008093030185E090E0909302018093010198
:100140007894CF91089508951F920F920FB60F9251
:1001500011242F933F934F935F936F937F938F93CC
:100160009F93AF93BF93EF93FF931A9B06C088E0D2
:1001700083B98EE091E00E941801FF91EF91BF9149
:10018000AF919F918F917F916F915F914F913F912F
:100190002F910F900FBE0F901F9018951F920F92E6
:1001A0000FB60F9211242F933F934F935F936F934A
:1001B0007F938F939F93AF93BF93EF93FF93809120
:1001C000EE0086FF05C088E083B98EE091E013C0A1
:1001D0008091EE0085FF07C080E091E00E94FF055E
:1001E00080E183B90AC088E083B98EE091E00E9483
:1001F000FF0580E091E00E94FF05FF91EF91BF9124
:10020000AF919F918F917F916F915F914F913F91AE
:100210002F910F900FBE0F901F9018950E94DA0635
:100220000E948906E8EDF0E0808182608083089575
:100230000F931F93CF93DF9300D000D0CDB7DEB7DD
:100240008C01DC0111968D919C9112970C97A1F471
:100250001A968C911A97803609F0C0C48C918295B9
:10026000807F8093ED008091EF008F738093EF008B
:100270001092EE001C92B2C40E9499068F3F09F4BE
:10028000B0C490E6D8011A969C931A978C938295E5
:10029000807F8093ED00EEEEF0E01192E83FF105F3
:1002A000E1F7D8011196ED91FC9112973197EB305F
:1002B000F10508F093C4E25CFF4F0C94EA0680E07D
:1002C0008DC3F8018485882391F185818295869577
:1002D00087709681F8E09F9F800D11248093F30032
:1002E000D80114968C9114978295869587701596EF
:1002F0009C91B8E09B9F800D11248093F200F8013F
:1003000083818295869587709481F8E09F9F800D08
:1003100011248093F100D80113968C91880F880FD7
:10032000880F8093F0008091EF00806117C0F80182
:1003300083818695869586959481F0E29F9F800DB6
:1003400011248093F300D80113968C918295880F25
:10035000807E8093F2008091EF008F7E8093EF008B
:1003600080E0F8019781891760F4D8011896ED9123
:10037000FC911997E80FF11D90819093FA008F5F1F
:10038000F0CF8385882321F08091F000846003C042
:100390008091F0008B7F8093F0008091EF00D80176
:1003A00017969C9169C0F8018485882391F1858115
:1003B0008295869587709681F8E09F9F800D112425
:1003C0008093F300D80114968C91149782958695AA
:1003D000877015969C91B8E09B9F800D11248093A7
:1003E000F200F80183818295869587709481F8E008
:1003F0009F9F800D11248093F100D80113968C915A
:10040000880F880F880F8093F0008091EF00806143
:1004100017C0F80183818695869586959481F0E2D0
:100420009F9F800D11248093F300D80113968C9127
:100430008295880F807E8093F2008091EF008F7EFE
:100440008093EF0080E0F8019781891760F4D8016C
:100450001896ED91FC911997E80FF11D90819093FA
:10046000FA008F5FF0CF13868091F0008B7F80932E
:10047000F0008091EF009781892B8093EF008091AD
:10048000EF008F738093EF008091EF008064809382
:10049000EF0080E0ABC3D8011C968C911C97882399
:1004A000A1F115968C911597829586958770169671
:1004B0009C91B8E09B9F800D11248093F300F8017C
:1004C00084818295869587709581F8E09F9F800D45
:1004D00011248093F200D80113968C911397829582
:1004E0008695877014969C91B8E09B9F800D11248F
:1004F0008093F100F8018381880F880F880F809323
:10050000F0008091EF00806119C0D80113968C91A2
:10051000139786958695869514969C91B0E29B9F3D
:10052000800D11248093F300F80183818295880F58
:10053000807E8093F2008091EF008F7E8093EF00A9
:1005400081E0D8011B968C931B978091F00084600A
:100550008093F0008091EF0023CF19821A821B82D2
:100560001C821092F7008A818295869587709B8104
:10057000B8E09B9F800D11248093F60089818295BD
:10058000869587709A81E8E09E9F800D1124809364
:10059000F5008981880F880F880F8093F40080917F
:1005A000EF00D80117969C91892B8093EF008091E2
:1005B000F4008B7F8093F4005EC219821A821B8242
:1005C0001C821092F7008A818295869587709B81A4
:1005D000B8E09B9F800D11248093F600898182955D
:1005E000869587709A81E8E09E9F800D1124809304
:1005F000F5008981880F880F880F8093F40080911F
:10060000EF00D80117969C911797892B8093EF00E4
:100610001B961C928091F40084608093F40080917A
:10062000F0008B7F8093F00026C219821A821B8211
:100630001C821092F7008A818295869587709B8133
:10064000B8E09B9F800D11248093F60089818295EC
:10065000869587709A81E8E09E9F800D1124809393
:10066000F5008981880F880F880F8093F4008091AE
:10067000EF00D80117969C911797892B8093EF0074
:1006800081E01B968C938091F40084608093F40049
:100690008091F00084608093F0008091EF008F7D66
:1006A000E8C1F8018485882391F18581829586953A
:1006B00087709681F8E09F9F800D11248093F3004E
:1006C000D80114968C91149782958695877015960B
:1006D0009C91B8E09B9F800D11248093F200F8015B
:1006E00083818295869587709481F8E09F9F800D25
:1006F00011248093F100D80113968C91880F880FF4
:10070000880F8093F0008091EF00806117C0F8019E
:1007100083818695869586959481F0E29F9F800DD2
:1007200011248093F300D80113968C918295880F41
:10073000807E8093F2008091EF008F7E8093EF00A7
:100740008FEF9FEFDC0189839A83AB83BC838FEFAC
:100750008093F7008A818295869587709B81B8E0A7
:100760009B9F800D11248093F60089818295869548
:1007700087709A81E8E09E9F800D11248093F50098
:100780008981880F880F880F8093F4008091EF0093
:10079000D80117969C91892B8093EF008091F400EB
:1007A0008B7F8093F4000CC2F8018485882391F13B
:1007B00085818295869587709681F8E09F9F800D50
:1007C00011248093F300D80114968C91149782958C
:1007D0008695877015969C91B8E09B9F800D11249B
:1007E0008093F200F80183818295869587709481C9
:1007F000F8E09F9F800D11248093F100D80113969B
:100800008C91880F880F880F8093F0008091EF0003
:10081000806117C0F80183818695869586959481BD
:10082000F0E29F9F800D11248093F300D80113966E
:100830008C918295880F807E8093F2008091EF00EA
:100840008F7E8093EF008FEF9FEFDC0189839A8387
:10085000AB83BC838FEF8093F7008A818295869566
:1008600087709B81B8E09B9F800D11248093F600D8
:1008700089818295869587709A81E8E09E9F800D98
:1008800011248093F5008981880F880F880F809349
:10089000F4008091EF00D80117969C911797892B4F
:1008A0008093EF001B961C928091F40084608093EB
:1008B000F4008091F0008B7F8093F00081C1F801FB
:1008C0008485882391F185818295869587709681AC
:1008D000F8E09F9F800D11248093F300D8011496B7
:1008E0008C91149782958695877015969C91B8E0A7
:1008F0009B9F800D11248093F200F80183818295E3
:10090000869587709481F8E09F9F800D11248093D5
:10091000F100D80113968C91880F880F880F80936F
:10092000F0008091EF00806117C0F8018381869507
:10093000869586959481F0E29F9F800D1124809387
:10094000F300D80113968C918295880F807E809356
:10095000F2008091EF008F7E8093EF004FEF5FEF0A
:10096000BA0149835A836B837C838FEF8093F700AE
:100970008A818295869587709B81B8E09B9F800DC8
:1009800011248093F60089818295869587709A81DB
:10099000E8E09E9F800D11248093F5008981880FE7
:1009A000880F880F8093F4008091EF00D80117968C
:1009B0009C911797892B8093EF0081E01B968C9375
:1009C0008091F40084608093F4008091F000846052
:1009D0008093F0008091EF008F7DF0C0F801978147
:1009E000891760F4D8011896ED91FC911997E80FDA
:1009F000F11D90819093FA008F5FF0CF19821A82D7
:100A00001B821C821092F7008A81829586958770DE
:100A10009B81F8E09F9F800D11248093F6008981CF
:100A20008295869587709A8128E0929F800D112487
:100A30008093F5008981880F880F880F8093F400D8
:100A40008091EF00D80117969C911797892B80937E
:100A5000EF0081E01B968C938091F400846080937A
:100A6000F4008091F00084608093F0008091EF00AA
:100A700080628093EF008091F4008E7FA4C0F80123
:100A80008485882391F185818295869587709681EA
:100A9000F8E09F9F800D11248093F300D8011496F5
:100AA0008C91149782958695877015969C91B8E0E5
:100AB0009B9F800D11248093F200F8018381829521
:100AC000869587709481F8E09F9F800D1124809314
:100AD000F100D80113968C91880F880F880F8093AE
:100AE000F0008091EF00806117C0F8018381869546
:100AF000869586959481F0E29F9F800D11248093C6
:100B0000F300D80113968C918295880F807E809394
:100B1000F2008091EF008F7E8093EF0080E0F8017B
:100B20009781891760F4D8011896ED91FC91199777
:100B3000E80FF11D90819093FA008F5FF0CF4FEF97
:100B40005FEFBA0149835A836B837C838FEF809375
:100B5000F7008A818295869587709B81F8E09F9F38
:100B6000800D11248093F600898182958695877087
:100B70009A8128E0929F800D11248093F50089814D
:100B8000880F880F880F8093F4008091EF00D801C0
:100B900017969C911797892B8093EF0081E01B9605
:100BA0008C938091F40084608093F4008091F00035
:100BB00084608093F0008091EF0080628093EF006A
:100BC0008091F40081608093F4008091EF008F7336
:100BD0008093EF008091EF00806859CCF801128675
:100BE00058CC8FE1D8011A968C938FEF0F900F900D
:100BF0000F900F90DF91CF911F910F9108951F9348
:100C0000CF93DF93EC018A85882309F47BC08F3171
:100C100009F478C08F3F09F475C088818295807F80
:100C20008093ED000E94AF06182F803259F020F417
:100C3000882309F469C05EC0803409F451C0803A49
:100C400009F058C08091EF008F708F838885998557
:100C50000E94C7068091F00082FB882780F98B876D
:100C60008091EF0084FF29C081E08C878091F300A0
:100C70008695869586958E838091F2009091F300FB
:100C800086958695869520E2929F800D11248D830E
:100C90008091F1009091F20086958695869520E2EC
:100CA000929F800D11248C838091F0009091F1002F
:100CB00086958695869520E20FC01C868091F3006C
:100CC0008295869587708C838091F2009091F300D5
:100CD00082958695877028E0929F800D11248B83E2
:100CE0001A878091EF008F738093EF001092EE00CF
:100CF00080E00BC01A878091EF008F738093EF0024
:100D00001092EE0082E001C081E0DF91CF911F914F
:100D1000089580E0982F9295907F9093ED00EEEEED
:100D2000F0E01192E83FF105E1F78F5F863091F72F
:100D300008952091ED0080E0982F9295907F9093F8
:100D4000ED009091EF00907C19F42093ED00089550
:100D50008F5F863089F72093ED008FEF08958091A3
:100D6000EF00807C61F08091EE00982F907E9032B1
:100D700041F0903441F0903A41F08F7108958FEF37
:100D8000089580E2089580E4089580EA089560E07F
:100D90004091EF00262F30E04F7050E024173507C8
:100DA00044F44091FA00FC01E20FF31F40836F5FAF
:100DB000EFCF089581E08093D80088E08093E2002F
:100DC0008CE08093E30087E38093E40008950E9421
:100DD0005D00FFCFEE0FFF1F0590F491E02D099409
:040DE000F894FFCFB5
:00000001FF
