:100000000C943E000C9448000C9448000C9448005A
:100010000C9448000C9448000C9448000C94480040
:100020000C9448000C9448000C9448000C94480030
:100030000C9448000C9448000C9448000C94480020
:100040000C9448000C9448000C9448000C94480010
:100050000C9448000C9448000C9448000C94480000
:100060000C9448000C9448000C9448000C945E00DA
:100070000C9448000C9448000C94480011241FBEB6
:10008000CFEFD8E0DEBFCDBF0E9483000C94860086
:100090000C9400008FEF87B988B915B885E6809376
:1000A0007C008FEB80937A0010927B007894EAE7D3
:1000B000F0E0808180648083089508951F920F92FC
:1000C0000FB60F9211242F938F939F93EF93FF936B
:1000D0002FE986E891E0215080409040E1F700C090
:1000E00000008091790088B9EAE7F0E080818064BF
:1000F0008083FF91EF919F918F912F910F900FBE71
:100100000F901F9018950E944A00FFCFF894FFCFE0
:00000001FF
