:100000000C943E000C9448000C9448000C9448005A
:100010000C9448000C9448000C9448000C94480040
:100020000C9448000C9448000C9448000C94480030
:100030000C9448000C9448000C9448000C94480020
:100040000C9448000C9448000C9448000C94480010
:100050000C9448000C9448000C9448000C94480000
:100060000C9448000C9448000C9448000C945E00DA
:100070000C9448000C9448000C94480011241FBEB6
:10008000CFEFD8E0DEBFCDBF0E947E000C94810090
:100090000C9400008FEF87B988B915B885E6809376
:1000A0007C008FEB80937A0010927B007894EAE7D3
:1000B000F0E0808180648083089508951F920F92FC
:1000C0000FB60F9211248F939F93EF93FF9383EDBD
:1000D00090E30197F1F700C000008091790088B9A2
:1000E000EAE7F0E0808180648083FF91EF919F9147
:1000F0008F910F900FBE0F901F9018950E944A008D
:06010000FFCFF894FFCFD1
:00000001FF
