:100000000C943E000C945B000C945B000C945B0021
:100010000C945B000C945B000C945B000C945B00F4
:100020000C945B000C945B000C945B000C945B00E4
:100030000C945B000C945B000C945B000C945B00D4
:100040000C945B000C945B000C946E040C945B00AD
:100050000C945B000C945B000C9407020C94490216
:100060000C946D020C945B000C945B000C945B0090
:100070000C945B000C945B000C945B0011241FBE7D
:10008000CFEFD8E0DEBFCDBF11E0A0E0B1E0ECECF7
:10009000F9E002C005900D92AC3FB107D9F721E01D
:1000A000ACEFB1E001C01D92AE3FB207E1F70E9494
:1000B000CC040C94E4040C940000282FDB01FC0118
:1000C0008E2F821B841748F481919D91891303C060
:1000D0008111F6CF02C080E0089581E0089508956F
:1000E0000895089508950895089508950895089528
:1000F000CF93DF93E90148E06AEE71E0C9010E9405
:100100005D00882311F061E009C048E063EF71E011
:10011000CE010E945D00882331F060E08DE0DF9128
:10012000CF910C94BD00DF91CF910895089508956B
:10013000CF93DF93E7E9F1E0CBE7D1E021E030E0D6
:10014000A191B1914C91C901099002C0880F991FEA
:100150000A94E2F7482B4C9381E0E73AF80781F7DD
:10016000DF91CF9108958BE480937C0083E88093A6
:100170007A0080E880937B00089590E0FC01EE0F08
:10018000FF1FE45BFE4F0190F081E02D4081DC0118
:10019000A75CBE4F21E030E00C9002C0220F331F5D
:1001A0000A94E2F7662321F0422B408381E0089510
:1001B00020952423208380E00895282F30E0F90142
:1001C000EE0FFF1FED5EFE4F0190F081E02D80816C
:1001D00090E0F901E050FF4F008002C095958795AF
:1001E0000A94E2F7817008950C94DD00282F30E026
:1001F000F901EE0FFF1FED5EFE4F0190F081E02D43
:10020000D901A050BF4F21E030E00C9002C0220F76
:10021000331F0A94E2F7208300000C94DD009091D4
:100220007C00907E90937C0090917C00982B909322
:100230007C0080E480937A0080917A0084FFFCCF78
:1002400080917A00806180937A002091790080917A
:10025000780090E0922B089593B180916A008923F1
:100260008093FD0199B180916C0089238093FC01FA
:100270000895843021F099EF980F9230B0F55091A5
:10028000690090E021E030E0611102C020E030E040
:10029000FC01E852FE4FB901008002C0660F771FD3
:1002A0000A94E2F721E030E0411102C020E030E0A2
:1002B000FC01EF51FE4F008002C0220F331F0A9451
:1002C000E2F7262B252B209369004DB3FC01E15367
:1002D000FE4F21E030E0008002C0220F331F0A945D
:1002E000E2F7422B4DBB81E0089580E00895843011
:1002F00021F099EF980F923068F5A091690090E095
:10030000FC01EF51FE4F21E030E0B901008002C056
:10031000660F771F0A94E2F7FC01E852FE4FA9012D
:10032000008002C0440F551F0A94E2F7462B409507
:100330004A23409369004DB3FC01E153FE4F008016
:1003400002C0220F331F0A94E2F7209524232DBB0D
:1003500081E0089580E0089590E0FC01EE0FFF1F1A
:10036000E354FE4F0190F081E02D6081DC01AC543C
:10037000BE4F21E030E0A9010C9002C0440F551F90
:100380000A94E2F7642B6083E8E6F0E04081DC0148
:10039000A555BE4F0C9002C0220F331F0A94E2F7FE
:1003A000422B40830C942C0190E0FC01EE0FFF1FC8
:1003B000E354FE4F0190F081E02D6081DC01AC54EC
:1003C000BE4F21E030E0A9010C9002C0440F551F40
:1003D0000A94E2F7409546234083408141110FC0C3
:1003E00040916800FC01E555FE4F008002C0220FDD
:1003F000331F0A94E2F720952423209368000C947D
:100400002C010E942C0178940895F89408951F926D
:100410000F920FB60F9211242F933F934F935F9338
:100420006F937F938F939F93AF93BF93CF93DF93FC
:10043000EF93FF9393B1C0916A008091FD01C923AE
:10044000C8270E942C01D0E0CE01880F892F881F79
:10045000990B892B11F00E947200C6FD0E94740056
:10046000C5FD0E947600C2FD0E947700FF91EF91CA
:10047000DF91CF91BF91AF919F918F917F916F91BC
:100480005F914F913F912F910F900FBE0F901F9052
:1004900018951F920F920FB60F9211242F933F932E
:1004A0004F935F936F937F938F939F93AF93BF937C
:1004B000EF93FF930E947300FF91EF91BF91AF9173
:1004C0009F918F917F916F915F914F913F912F916C
:1004D0000F900FBE0F901F9018951F920F920FB69E
:1004E0000F9211241F932F933F934F935F936F931A
:1004F0007F938F939F93AF93BF93CF93DF93EF93AC
:10050000FF9399B110916C008091FC011923182779
:100510000E942C01C12F13FD0E946F00C2FD0E949A
:100520007000C1FD0E94710010FD0E947500FF91D6
:10053000EF91DF91CF91BF91AF919F918F917F917B
:100540006F915F914F913F912F911F910F900FBE2F
:100550000F901F90189581E08093D8001092E500CD
:1005600082E18093E2008CE08093E30087E3809354
:10057000E4008FEF8093DB001092DF008FE3809325
:10058000DE0080E0982F9295907F9093ED0010927E
:10059000EE001092EF001092F0001092F100109215
:1005A000F2001092F3001092F4001092F5001092F5
:1005B000F6001092F7008F5F863021F70895E8ED7E
:1005C000F0E08081826080830895E8EDF0E0808132
:1005D0008D7F80830895CF92DF92EF92FF920F93E9
:1005E0001F932091F0006091F100C090F200009103
:1005F000F30070E080E090E035E0660F771F881F21
:10060000991F3A95D1F7269526952695622BD12CE0
:10061000E12CF12C4DE0CC0CDD1CEE1CFF1C4A95AE
:10062000D1F76C297D298E299F2910E020E030E048
:1006300055E1000F111F221F331F5A95D1F7602B70
:10064000712B822B932B1F910F91FF90EF90DF90D6
:10065000CF900895CF93DF9300D000D0CDB7DEB711
:10066000E3E0660F771F881F991FEA95D1F769832A
:100670007A838B839C838C818093F3008B8180931E
:10068000F2008A818093F10089818093F0000F90BD
:100690000F900F900F90DF91CF910895CF93DF933C
:1006A00000D000D0CDB7DEB7F3E0660F771F881F0C
:1006B000991FFA95D1F769837A838B839C838C8108
:1006C0008093F7008B818093F6008A818093F500F8
:1006D000898185608093F4000F900F900F900F90A8
:1006E000DF91CF91089580E090E02091DC0030E030
:1006F000082E02C0359527950A94E2F720FD05C023
:1007000001968630910589F78FEF0895CF92DF9299
:10071000EF92FF920F931F93CF93DF9300D000D0FF
:10072000CDB7DEB76B017C011091ED0029833A83D0
:100730004B835C830E9473038295807F8093ED00DE
:10074000C701B6010E942A0329813A814B815C814D
:10075000CA01B9010E944E03093008F008E00068A0
:100760000093EF001093ED000F900F900F900F90FB
:10077000DF91CF911F910F91FF90EF90DF90CF907D
:100780000895CF92DF92EF92FF921F93CF93DF9362
:1007900000D01F92CDB7DEB76B017C011091ED0048
:1007A00029834A835B830E9473038295807F8093B1
:1007B000ED001092EE00C701B6010E942A034A81A3
:1007C000942FE42F5B81F52F29818E2F891B8217AF
:1007D00020F481918093FA00F8CF20642093EF00F9
:1007E0001093ED000F900F900F90DF91CF911F911C
:1007F000FF90EF90DF90CF900895EF92FF920F93CC
:100800001F93CF93DF93CDB7DEB70DB71EB70E940E
:10081000EB024091EF004F70A42FB0E02DB73EB730
:100820002A1B3B0B0FB6F8943EBF0FBE2DBF2F5FA8
:100830003F4FF9017F01E21AF30AEA16FB0624F49E
:100840005091FA005193F6CF0E9478008091EF000A
:1008500080688093EF000FB6F8941EBF0FBE0DBFE7
:10086000DF91CF911F910F91FF90EF900895EF923C
:10087000FF920F931F93CF93DF93CDB7DEB70DB7E2
:100880001EB70E94EB024091EF004F70A42FB0E022
:100890002DB73EB72A1B3B0B0FB6F8943EBF0FBED9
:1008A0002DBF2F5F3F4FF9017F01E21AF30AEA16CD
:1008B000FB0624F45091FA005193F6CF0E94960063
:1008C0001092EF000FB6F8941EBF0FBE0DBFDF9160
:1008D000CF911F910F91FF90EF9008951F920F926B
:1008E0000FB60F9211242F933F934F935F936F9303
:1008F0007F938F939F93AF93BF93CF93DF93EF93A8
:10090000FF93CFB7D091ED008091EC00807F809372
:10091000ED008091EE0085FF0DC08091EE008F7D8F
:100920008093EE008091EF008F738093EF000E9420
:10093000FD031CC08091EE0086FF0DC08091EE008B
:100940008F7B8093EE008091EF008F738093EF0098
:100950000E9437040BC01092EE008091EF008F735D
:100960008093EF001092DA000E949700D093ED0080
:10097000CFBFFF91EF91DF91CF91BF91AF919F9149
:100980008F917F916F915F914F913F912F910F9038
:100990000FBE0F901F9018950E9498000E94AB0206
:1009A00008E020E03FEF4FEF5FEF60E07FE08FE097
:1009B00090E00E9486030E9401020E94DF0260E034
:0C09C00089E00E94BD00FFCFF894FFCF3B
:1009CC0003020107000600050200010704050603E7
:1009DC0004000029002900290023002600230029F7
:1009EC0000230023002300230029002600260026D4
:1009FC000023002300000000000302010700060092
:100A0C000502000107040506030400002B002B005F
:100A1C002B002500280025002B0025002500250093
:100A2C0025002B00280028002800250025000000A8
:100A3C00000003020107000600050200010704057F
:100A4C0006030400002A002A002A002400270024A0
:100A5C00002A0024002400240024002A0027002758
:100A6C000027002400240000000000020202000104
:100A7C00000200000302010700060005026C006C76
:100A8C00006C006A006B006A006C006A006A00006F
:100A9C000000000300000201000000000700000538
:100AAC00030000000006000004026F6E6F6E6F6E94
:0C0ABC006F6E006F66666F66666F660006
:00000001FF
