:100000000C943E000C9450000C9450000C94500042
:100010000C9450000C9450000C9450000C94500020
:100020000C9450000C9450000C9450000C94500010
:100030000C9450000C9450000C94E7000C94500069
:100040000C9450000C9450000C9450000C945000F0
:100050000C9450000C9450000C9469000C945000C7
:100060000C9450000C9450000C9450000C945000D0
:100070000C9450000C9450000C94500011241FBE9E
:10008000CFEFD8E0DEBFCDBF21E0A0E0B1E001C0FE
:100090001D92A031B207E1F70E940A010C940D01F4
:1000A0000C940000F89410928000E1E8F0E01082D7
:1000B00091E090936F0080818560808388E087B9AC
:1000C0009093680084E080936A0085B978940895DD
:1000D00008951F920F920FB60F9211242F933F9302
:1000E0004F935F936F937F938F939F93AF93BF9340
:1000F0001A9B29C080910C0190910D01A0910E01D5
:10010000B0910F012091840030918500820F931FE0
:10011000A11DB11D8093000190930101A0930201E4
:10012000B09303018091000190910101A09102011F
:10013000B09103018093080190930901A0930A01F3
:10014000B0930B0135C080910C0190910D01A091ED
:100150000E01B0910F012091840030918500820F33
:10016000931FA11DB11D8093000190930101A093E5
:100170000201B09303018091000190910101A091CF
:100180000201B09103014091080150910901609171
:100190000A0170910B01841B950BA60BB70B8131E3
:1001A0009742A105B10518F088E088B901C018B8D8
:1001B000BF91AF919F918F917F916F915F914F917F
:1001C0003F912F910F900FBE0F901F9018951F9287
:1001D0000F920FB60F9211248F939F93AF93BF93FB
:1001E00080910C0190910D01A0910E01B0910F0131
:1001F000119680930C0190930D01A0930E01B09382
:100200000F01BF91AF919F918F910F900FBE0F90F3
:0E0210001F9018950E945200FFCFF894FFCF68
:00000001FF
