:100000000C943E000C9448000C9448000C9448005A
:100010000C9448000C9448000C9448000C94480040
:100020000C9448000C9448000C9448000C94480030
:100030000C9448000C9448000C9448000C94480020
:100040000C9448000C9448000C9448000C94480010
:100050000C9448000C9448000C9454000C944800F4
:100060000C9448000C9448000C9448000C944800F0
:100070000C9448000C9448000C94480011241FBEB6
:10008000CFEFD8E0DEBFCDBF0E9464000C946700C4
:100090000C94000088E087B991E090936800809309
:1000A0006A007894089508951F920F920FB60F92E8
:1000B00011248F931B9B02C088E086B98F910F900B
:1000C0000FBE0F901F9018950E944A00FFCFF89422
:0200D000FFCF60
:00000001FF
