:100000000C943E000C945B000C945B000C945B0021
:100010000C945B000C945B000C945B000C945B00F4
:100020000C945B000C945B000C945B000C945B00E4
:100030000C945B000C945B000C945B000C945B00D4
:100040000C945B000C945B000C945B000C945B00C4
:100050000C945B000C945B000C94D5010C9417027B
:100060000C943B020C945B000C945B000C945B00C2
:100070000C945B000C945B000C945B0011241FBE7D
:10008000CFEFD8E0DEBFCDBF11E0A0E0B1E0E0EA05
:10009000F7E002C005900D92A63FB107D9F722E024
:1000A000A6EFB1E001C01D92A430B207E1F70E94B3
:1000B000B3030C94CE030C940000089508950895A2
:1000C000089508950895089508950895CF93DF93AE
:1000D000E7E9F1E0CBE7D1E021E030E0A191B19197
:1000E0004C91C901099002C0880F991F0A94E2F748
:1000F000482B4C9381E0E73AF80781F7DF91CF91E5
:1001000008958BE480937C0083E880937A0080E8F4
:1001100080937B00089590E0FC01EE0FFF1FE45BED
:10012000FE4F0190F081E02D4081DC01A75CBE4FC5
:1001300021E030E00C9002C0220F331F0A94E2F756
:10014000662321F0422B408381E0089520952423EB
:10015000208380E00895282F30E0F901EE0FFF1F83
:10016000ED5EFE4F0190F081E02D808190E0F9017D
:10017000E050FF4F008002C0959587950A94E2F702
:10018000817008950C94AB00282F30E0F901EE0F38
:10019000FF1FED5EFE4F0190F081E02DD901A050D0
:1001A000BF4F21E030E00C9002C0220F331F0A94B1
:1001B000E2F7208300000C94AB0090917C00907ECD
:1001C00090937C0090917C00982B90937C0080E42D
:1001D00080937A0080917A0084FFFCCF80917A002E
:1001E000806180937A00209179008091780090E07E
:1001F000922B089593B180916A0089238093F7012F
:1002000099B180916C0089238093F6010895843020
:1002100021F099EF980F9230B0F55091690090E07D
:1002200021E030E0611102C020E030E0FC01E85242
:10023000FE4FB901008002C0660F771F0A94E2F7F3
:1002400021E030E0411102C020E030E0FC01EF513C
:10025000FE4F008002C0220F331F0A94E2F7262BC4
:10026000252B209369004DB3FC01E153FE4F21E0A3
:1002700030E0008002C0220F331F0A94E2F7422BC5
:100280004DBB81E0089580E00895843021F099EF1E
:10029000980F923068F5A091690090E0FC01EF5151
:1002A000FE4F21E030E0B901008002C0660F771FE9
:1002B0000A94E2F7FC01E852FE4FA901008002C057
:1002C000440F551F0A94E2F7462B40954A2340936A
:1002D00069004DB3FC01E153FE4F008002C0220FC4
:1002E000331F0A94E2F7209524232DBB81E0089563
:1002F00080E0089590E0FC01EE0FFF1FE354FE4FF5
:100300000190F081E02D6081DC01AC54BE4F21E012
:1003100030E0A9010C9002C0440F551F0A94E2F787
:10032000642B6083E8E6F0E04081DC01A555BE4F18
:100330000C9002C0220F331F0A94E2F7422B408335
:100340000C94FA0090E0FC01EE0FFF1FE354FE4F07
:100350000190F081E02D6081DC01AC54BE4F21E0C2
:1003600030E0A9010C9002C0440F551F0A94E2F737
:10037000409546234083408141110FC04091680061
:10038000FC01E555FE4F008002C0220F331F0A9486
:10039000E2F720952423209368000C94FA000E9431
:1003A000FA0078940895F89408951F920F920FB66A
:1003B0000F9211242F933F934F935F936F937F93EB
:1003C0008F939F93AF93BF93CF93DF93EF93FF935D
:1003D00093B1C0916A008091F701C923C8270E9498
:1003E000FA00D0E0CE01880F892F881F990B892B46
:1003F00011F00E946000C6FD0E946200C5FD0E94CF
:100400006400C2FD0E946500FF91EF91DF91CF91E2
:10041000BF91AF919F918F917F916F915F914F911C
:100420003F912F910F900FBE0F901F9018951F9224
:100430000F920FB60F9211242F933F934F935F9318
:100440006F937F938F939F93AF93BF93EF93FF939C
:100450000E946100FF91EF91BF91AF919F918F91A9
:100460007F916F915F914F913F912F910F900FBEB0
:100470000F901F9018951F920F920FB60F92112494
:100480001F932F933F934F935F936F937F938F931C
:100490009F93AF93BF93CF93DF93EF93FF9399B164
:1004A00010916C008091F601192318270E94FA0020
:1004B000C12F13FD0E945D00C2FD0E945E00C1FDC0
:1004C0000E945F0010FD0E946300FF91EF91DF9199
:1004D000CF91BF91AF919F918F917F916F915F91DC
:1004E0004F913F912F911F910F900FBE0F901F9032
:1004F00018958091FF01909100028436910568F073
:100500001092F801845691092091F8012F5F2093F1
:10051000F80184369105B0F703C02AE02093F80172
:100520008A30910560F01092F9010A972091F90143
:100530002F5F2093F9018A309105B8F703C02AE0B4
:100540002093F9011092FA01009739F00197209158
:10055000FA012F5F2093FA01F7CF08958091FB01F4
:100560009091FC014497F0F18091FB019091FC0186
:100570008897D0F18091FB019091FC01C297B0F176
:100580008091FB019091FC01CC9790F18091FB014F
:100590009091FC018634910568F18091FB01909166
:1005A000FC018035910540F18091FB019091FC01A7
:1005B0008535910518F18091FB019091FC018A35F8
:1005C0009105F0F08091FB019091FC018F35910530
:1005D000C8F08091FB019091FC0184369105A0F454
:1005E00089E013C080E011C081E00FC082E00DC03F
:1005F00083E00BC084E009C085E007C086E005C049
:1006000087E003C088E001C08AE06AE070E090E023
:100610000E948D03809102029091030280579741BE
:1006200064E971E10E94BA0386E1689F802D11247C
:100630008F5F873108F086E166E170E090E00E940C
:100640008D030E947902E091F801EB3028F4F0E08C
:10065000E651FE4F808101C080E090E00E9470036F
:10066000E091F901EB3028F4F0E0E651FE4F808193
:1006700001C080E090E00E947003E091FA01EB304D
:1006800028F4F0E0E651FE4F808101C080E090E068
:100690000E947003E0910102EB3028F4F0E0E65193
:1006A000FE4F808101C080E090E00E9470030C94B6
:1006B000A70361E0811101C060E089E00E948B0026
:1006C00085E08A95F1F7000061E08AE00E948B00E6
:1006D00085E08A95F1F7000060E08AE00C948B00D9
:1006E000FF920F931F93CF93DF93F82EC0E0D0E0DB
:1006F00001E010E0C8010C2E01C0880F0A94EAF74F
:100700008F210E9459032196C830D10599F7DF91B6
:10071000CF911F910F91FF9008951F93CF93DF9377
:10072000182FC62FC81BD0E0D11729F081E00E94F6
:100730005903DF5FF9CFD0E0DC1729F080E00E9499
:100740005903DF5FF9CFDF91CF911F91089561E0E9
:100750008BE00E948B0085E08A95F1F7000060E055
:100760008BE00C948B000E9466000E9481000E9426
:10077000AE02FDCFAA1BBB1B51E107C0AA1FBB1FC6
:10078000A617B70710F0A61BB70B881F991F5A951D
:10079000A9F780959095BC01CD010895F894FFCFFD
:1007A000030201070006070502000107040506030E
:1007B0000400002900290029002300260023002925
:1007C0000023002300230023002900260026002602
:1007D00000230023000000000003020107000607B9
:1007E0000502000107040506030400002B002B008E
:1007F0002B002500280025002B00250025002500C2
:1008000025002B00280028002800250025000000D6
:1008100000000302010700060705020001070405A6
:1008200006030400002A002A002A002400270024CE
:10083000002A0024002400240024002A0027002786
:100840000027002400240000000000020202000132
:10085000000200000302010700060005026C006CA4
:10086000006C006A006B006A006C006A006A00009D
:100870000000000300000201000000000700000566
:1008800003000000000600000402FC60DAF266B615
:06089000BEE0FEF60000D0
:00000001FF
