:100000000C943E000C945B000C945B000C945B0021
:100010000C945B000C945B000C945B000C945B00F4
:100020000C945B000C945B000C945B000C945B00E4
:100030000C945B000C945B000C945B000C945B00D4
:100040000C945B000C945B000C945B000C945B00C4
:100050000C945B000C945B000C94D5010C9417027B
:100060000C943B020C945B000C945B000C945B00C2
:100070000C945B000C945B000C945B0011241FBE7D
:10008000CFEFD8E0DEBFCDBF11E0A0E0B1E0ECECF7
:10009000F7E002C005900D92AC3FB107D9F722E01E
:1000A000ACEFB1E001C01D92A330B207E1F70E94AE
:1000B000C5030C94E4030C9400000895089508957A
:1000C000089508950895089508950895CF93DF93AE
:1000D000EEE9F1E0C2E8D1E021E030E0A191B19198
:1000E0004C91C901099002C0880F991F0A94E2F748
:1000F000482B4C9381E0EE3AF80781F7DF91CF91DE
:1001000008958BE480937C0083E880937A0080E8F4
:1001100080937B00089590E0FC01EE0FFF1FED5AE5
:10012000FE4F0190F081E02D4081DC01A05CBE4FCC
:1001300021E030E00C9002C0220F331F0A94E2F756
:10014000662321F0422B408381E0089520952423EB
:10015000208380E00895282F30E0F901EE0FFF1F83
:10016000E65EFE4F0190F081E02D808190E0F90184
:10017000E95FFE4F008002C0959587950A94E2F7EB
:10018000817008950C94AB00282F30E0F901EE0F38
:10019000FF1FE65EFE4F0190F081E02DD901A95FBF
:1001A000BE4F21E030E00C9002C0220F331F0A94B2
:1001B000E2F7208300000C94AB0090917C00907ECD
:1001C00090937C0090917C00982B90937C0080E42D
:1001D00080937A0080917A0084FFFCCF80917A002E
:1001E000806180937A00209179008091780090E07E
:1001F000922B089593B180916A0089238093FD0129
:1002000099B180916C0089238093FC01089584301A
:1002100021F099EF980F9230B0F55091690090E07D
:1002200021E030E0611102C020E030E0FC01E15249
:10023000FE4FB901008002C0660F771F0A94E2F7F3
:1002400021E030E0411102C020E030E0FC01E85143
:10025000FE4F008002C0220F331F0A94E2F7262BC4
:10026000252B209369004DB3FC01EA52FE4F21E09B
:1002700030E0008002C0220F331F0A94E2F7422BC5
:100280004DBB81E0089580E00895843021F099EF1E
:10029000980F923068F5A091690090E0FC01E85158
:1002A000FE4F21E030E0B901008002C0660F771FE9
:1002B0000A94E2F7FC01E152FE4FA901008002C05E
:1002C000440F551F0A94E2F7462B40954A2340936A
:1002D00069004DB3FC01EA52FE4F008002C0220FBC
:1002E000331F0A94E2F7209524232DBB81E0089563
:1002F00080E0089590E0FC01EE0FFF1FEC53FE4FED
:100300000190F081E02D6081DC01A554BE4F21E019
:1003100030E0A9010C9002C0440F551F0A94E2F787
:10032000642B6083E8E6F0E04081DC01AE54BE4F10
:100330000C9002C0220F331F0A94E2F7422B408335
:100340000C94FA0090E0FC01EE0FFF1FEC53FE4FFF
:100350000190F081E02D6081DC01A554BE4F21E0C9
:1003600030E0A9010C9002C0440F551F0A94E2F737
:10037000409546234083408141110FC04091680061
:10038000FC01EE54FE4F008002C0220F331F0A947E
:10039000E2F720952423209368000C94FA000E9431
:1003A000FA0078940895F89408951F920F920FB66A
:1003B0000F9211242F933F934F935F936F937F93EB
:1003C0008F939F93AF93BF93CF93DF93EF93FF935D
:1003D00093B1C0916A008091FD01C923C8270E9492
:1003E000FA00D0E0CE01880F892F881F990B892B46
:1003F00011F00E946000C6FD0E946200C5FD0E94CF
:100400006400C2FD0E946500FF91EF91DF91CF91E2
:10041000BF91AF919F918F917F916F915F914F911C
:100420003F912F910F900FBE0F901F9018951F9224
:100430000F920FB60F9211242F933F934F935F9318
:100440006F937F938F939F93AF93BF93EF93FF939C
:100450000E946100FF91EF91BF91AF919F918F91A9
:100460007F916F915F914F913F912F910F900FBEB0
:100470000F901F9018951F920F920FB60F92112494
:100480001F932F933F934F935F936F937F938F931C
:100490009F93AF93BF93CF93DF93EF93FF9399B164
:1004A00010916C008091FC01192318270E94FA001A
:1004B000C12F13FD0E945D00C2FD0E945E00C1FDC0
:1004C0000E945F0010FD0E946300FF91EF91DF9199
:1004D000CF91BF91AF919F918F917F916F915F91DC
:1004E0004F913F912F911F910F900FBE0F901F9032
:1004F000189580910501909106018057974164E914
:1005000071E10E94D00386E1689F802D11248F5FE6
:10051000873108F086E108958091000190910101F2
:100520004497F0F180910001909101018897D0F1FA
:100530008091000190910101C297B0F1809100017A
:1005400090910101CC9790F180910001909101016F
:100550008634910568F18091000190910101803508
:10056000910540F18091000190910101853591053F
:1005700018F180910001909101018A359105F0F008
:1005800080910001909101018F359105C8F0809113
:1005900000019091010184369105A0F489E008954D
:1005A00080E0089581E0089582E0089583E0089551
:1005B00084E0089585E0089586E0089587E0089531
:1005C00088E008958AE008958091020190910301E6
:1005D0008436910568F01092FE01845691092091AD
:1005E000FE012F5F2093FE0184369105B0F703C012
:1005F0002AE02093FE018A30910560F01092FF01FD
:100600000A972091FF012F5F2093FF018A30910507
:10061000B8F703C02AE02093FF0110920002009770
:1006200039F00197209100022F5F20930002F7CF4D
:1006300008958B3050F490E0FC01EF50FE4F808124
:10064000611101C008958F5F089580E008950E94B0
:100650008C026AE00E949D030E94790266E10E947A
:100660009D030E94E402E091FE01EB3028F4F0E0EB
:10067000EF50FE4F808101C080E00E948003E09136
:10068000FF01EB3028F4F0E0EF50FE4F808101C015
:1006900080E00E948003E0910002EB3028F4F0E05B
:1006A000EF50FE4F808101C080E00E948003E09106
:1006B0000401EB3028F4F0E0EF50FE4F808101C0E0
:1006C00080E00E9480030C94B70361E0811101C0B7
:1006D00060E08BE00E948B008FE891E00197F1F7DA
:1006E00000C0000061E08CE00E948B008FE891E088
:1006F0000197F1F700C0000060E08CE00C948B00E3
:10070000FF920F931F93CF93DF93F82EC0E0D0E0BA
:1007100001E010E0C8010C2E01C0880F0A94EAF72E
:100720008F210E9465032196C830D10599F7DF918A
:10073000CF911F910F91FF9008951F93CF93DF9357
:10074000182FC62FC81BD0E0D11729F081E00E94D6
:100750006503DF5FF9CFD0E0DC1729F080E00E946D
:100760006503DF5FF9CFDF91CF911F91089561E0BD
:100770008AE00E948B008FE891E00197F1F700C0BA
:10078000000060E08AE00C948B000E9466000E94EA
:10079000810060E482E30E949D030E94B703F9CFC9
:1007A000AA1BBB1B51E107C0AA1FBB1FA617B70797
:1007B00010F0A61BB70B881F991F5A95A9F78095B3
:0C07C0009095BC01CD010895F894FFCF86
:1007CC004600580002401F030201070006070502FD
:1007DC000001070405060304000029002900290074
:1007EC0023002600230029002300230023002300DC
:1007FC00290026002600260023002300000000000C
:10080C0003020107000607050200010704050603A1
:10081C000400002B002B002B002500280025002BAA
:10082C000025002500250025002B00280028002885
:10083C000025002500000000000302010700060748
:10084C000502000107040506030400002A002A0023
:10085C002A002400270024002A002400240024005D
:10086C0024002A0027002700270024002400000071
:10087C000000020202000100020000030201070056
:10088C00060005026C006C006C006A006B006A00CC
:10089C006C006A006A000000000003000002010006
:1008AC000000000700000503000000000600000423
:0C08BC0002FC60DAF266B6BEE0FEF60058
:00000001FF
