:100000000C943E000C9453000C9453000C94530039
:100010000C9453000C9453000C9453000C94530014
:100020000C9453000C9453000C9453000C94530004
:100030000C9453000C9453000C9453000C945300F4
:100040000C9453000C9453000C9453000C945300E4
:100050000C9453000C9453000C9453000C945300D4
:100060000C9453000C9453000C9453000C945300C4
:100070000C9453000C9453000C94530011241FBE95
:10008000CFEFD8E0DEBFCDBF11E0A0E0B1E0ECEEF5
:10009000F1E002C005900D92AA39B107D9F70E948C
:1000A000EF000C94F4000C940000CF93DF93E9E888
:1000B000F1E0CFE6D1E021E030E0A191B1914C91A7
:1000C000C901099002C0880F991F0A94E2F7482BD2
:1000D0004C9381E0E939F80781F7DF91CF910895DA
:1000E0008BE480937C0083E880937A0080E880939F
:1000F0007B00089590E0FC01EE0FFF1FEC5BFE4FCC
:100100000190F081E02D4081DC01AD5CBE4F21E02B
:1001100030E00C9002C0220F331F0A94E2F76623EE
:1001200021F0422B408381E00895209524232083F1
:1001300080E00895282F30E0F901EE0FFF1FEF5EF9
:10014000FE4F0190F081E02D808190E0F901E050B8
:10015000FF4F008002C0959587950A94E2F7817061
:1001600008950C949A00282F30E0F901EE0FFF1F3C
:10017000EF5EFE4F0190F081E02DD901A050BF4FFE
:1001800021E030E00C9002C0220F331F0A94E2F706
:10019000208300000C949A0090917C00907E9093B4
:1001A0007C0090917C00982B90937C0080E480935D
:1001B0007A0080917A0084FFFCCF80917A00806180
:1001C00080937A00209179008091780090E0922BC2
:1001D00008950E945500FFCF0C94550008950E9489
:0C01E000E90080E090E00895F894FFCF63
:1001EC0003020107000607050200010704050603C8
:1001FC0004290029002900230026002300290023BC
:10020C0000230023002300290026002600260023BB
:10021C000023000302010700060705020001070482
:10022C00050603042B002B002B00250028002500BD
:10023C002B0025002500250025002B002800280078
:10024C00280025002500030201070006070502000F
:10025C00010704050603042A002A002A00240027AB
:10026C000024002A0024002400240024002A002753
:0A027C0000270027002400240000E2
:00000001FF
