:100000000C943E000C945B000C945B000C945B0021
:100010000C945B000C945B000C945B000C945B00F4
:100020000C945B000C945B000C945B000C945B00E4
:100030000C945B000C945B000C945B000C945B00D4
:100040000C945B000C945B000C945B000C945B00C4
:100050000C945B000C945B000C9444020C9486029C
:100060000C94AA020C945B000C945B000C945B0053
:100070000C945B000C945B000C945B0011241FBE7D
:10008000CFEFD8E0DEBFCDBF11E0A0E0B1E0EAECF9
:10009000F6E002C005900D92A63FB107D9F721E026
:1000A000A6EFB1E001C01D92A83FB207E1F70E94A0
:1000B000E8020C9463030C9400008B3050F490E041
:1000C000FC01E050FF4F8081611101C008958F5FF6
:1000D000089580E00895CF93C82F682F617089E05C
:1000E0000E94FA006C2F62708AE00E94FA006C2F66
:1000F00064708BE00E94FA006C2F68708CE00E94A4
:10010000FA006C2F60718DE00E94FA006C2F607213
:100110008EE00E94FA006C2F60748FE00E94FA005B
:100120006C2F607880E1CF910C94FA0080E00E94FF
:100130001A01682F89E00C94FA0081E00E941A01EC
:10014000682F8AE00C94FA0082E00E941A01682F5E
:100150008BE00C94FA0083E00E941A01682F8CE077
:100160000C94FA0084E00E941A01682F8DE00C9430
:10017000FA0085E00E941A01682F8EE00C94FA00C4
:1001800086E00E941A01682F8FE00C94FA0087E045
:100190000E941A01682F80E10C94FA0088E00E9406
:1001A0001A01682F89E00C94FA00CF93DF93E2EAFA
:1001B000F1E0C6E8D1E021E030E0A191B1914C91AD
:1001C000C901099002C0880F991F0A94E2F7482BD1
:1001D0004C9381E0E23BF80781F7DF91CF910895DE
:1001E0008BE480937C0083E880937A0080E880939E
:1001F0007B00089590E0FC01EE0FFF1FE95AFE4FCF
:100200000190F081E02D4081DC01AC5BBE4F21E02C
:1002100030E00C9002C0220F331F0A94E2F76623ED
:1002200021F0422B408381E00895209524232083F0
:1002300080E00895282F30E0F901EE0FFF1FE25E05
:10024000FE4F0190F081E02D808190E0F901E55FA3
:10025000FE4F008002C0959587950A94E2F7817061
:1002600008950C941A01282F30E0F901EE0FFF1FBA
:10027000E25EFE4F0190F081E02DD901A55FBE4FF7
:1002800021E030E00C9002C0220F331F0A94E2F705
:10029000208300000C941A0190917C00907E909332
:1002A0007C0090917C00982B90937C0080E480935C
:1002B0007A0080917A0084FFFCCF80917A0080617F
:1002C00080937A00209179008091780090E0922BC1
:1002D000089593B180916A0089238093F70199B1C1
:1002E00080916C0089238093F6010895843021F079
:1002F00099EF980F9230B0F55091690090E021E0AD
:1003000030E0611102C020E030E0FC01ED51FE4F11
:10031000B901008002C0660F771F0A94E2F721E05E
:1003200030E0411102C020E030E0FC01E451FE4F1A
:10033000008002C0220F331F0A94E2F7262B252BE0
:10034000209369004DB3FC01E652FE4F21E030E0FE
:10035000008002C0220F331F0A94E2F7422B4DBBEC
:1003600081E0089580E00895843021F099EF980F9E
:10037000923068F5A091690090E0FC01E451FE4FD5
:1003800021E030E0B901008002C0660F771F0A94B7
:10039000E2F7FC01ED51FE4FA901008002C0440FBD
:1003A000551F0A94E2F7462B40954A234093690073
:1003B0004DB3FC01E652FE4F008002C0220F331FF6
:1003C0000A94E2F7209524232DBB81E0089580E074
:1003D000089590E0FC01EE0FFF1FE853FE4F0190DF
:1003E000F081E02D6081DC01A154BE4F21E030E0BE
:1003F000A9010C9002C0440F551F0A94E2F7642B28
:100400006083E8E6F0E04081DC01AA54BE4F0C9026
:1004100002C0220F331F0A94E2F7422B40830C9450
:10042000690190E0FC01EE0FFF1FE853FE4F0190C1
:10043000F081E02D6081DC01A154BE4F21E030E06D
:10044000A9010C9002C0440F551F0A94E2F7409591
:1004500046234083408141110FC040916800FC0158
:10046000EA54FE4F008002C0220F331F0A94E2F7C5
:1004700020952423209368000C9469010E9469014F
:1004800078940895F89408951F920F920FB60F92E2
:1004900011242F933F934F935F936F937F938F9389
:1004A0009F93AF93BF93CF93DF93EF93FF9393B15A
:1004B000C0916A008091F701C923C8270E94690191
:1004C000D0E0CE01880F892F881F990B892B11F05E
:1004D0000E94AB00C6FD0E94B900C5FD0E94C70086
:1004E000C2FD0E94CE00FF91EF91DF91CF91BF91AD
:1004F000AF919F918F917F916F915F914F913F91BC
:100500002F910F900FBE0F901F9018951F920F9272
:100510000FB60F9211242F933F934F935F936F93D6
:100520007F938F939F93AF93BF93EF93FF930E941B
:10053000B200FF91EF91BF91AF919F918F917F9109
:100540006F915F914F913F912F910F900FBE0F9040
:100550001F9018951F920F920FB60F9211241F93A0
:100560002F933F934F935F936F937F938F939F93BB
:10057000AF93BF93CF93DF93EF93FF9399B1109114
:100580006C008091F601192318270E946901C12F80
:1005900013FD0E949600C2FD0E949D00C1FD0E94B5
:1005A000A40010FD0E94C000FF91EF91DF91CF9158
:1005B000BF91AF919F918F917F916F915F914F917B
:1005C0003F912F911F910F900FBE0F901F90189584
:1005D0000E94D50080E60E946B002FEF8DE292E230
:1005E000215080409040E1F700C000008AED0E9459
:1005F0006B002FEF8DE292E2215080409040E1F7B6
:1006000000C0000082EF0E946B002FEF8DE292E2AB
:10061000215080409040E1F700C0000086E60E9433
:100620006B002FEF8DE292E2215080409040E1F785
:1006300000C0000086EB0E946B002FEF8DE292E27B
:10064000215080409040E1F700C000008EEB0E94F6
:100650006B002FEF8DE292E2215080409040E1F755
:1006600000C0000080EE0E946B002FEF8DE292E24E
:10067000215080409040E1F700C000008EEF0E94C2
:100680006B002FEF8DE292E2215080409040E1F725
:1006900000C0000086EF0E946B002FEF8DE292E217
:1006A000215080409040E1F700C0000080E00E94AF
:1006B0006B002FEF8DE292E2215080409040E1F7F5
:0A06C00000C0000087CFF894FFCFC0
:1006CA00FC60DAF266B6BEE0FEF60003020107003D
:1006DA0006070502000107040506030400002900B5
:1006EA0029002900230026002300290023002300D3
:1006FA0023002300290026002600260023002300C9
:10070A0000000000030201070006070502000107B6
:10071A00040506030400002B002B002B00250028EB
:10072A000025002B0025002500250025002B002888
:10073A00002800280025002500000000000302010F
:10074A000700060705020001070405060304000066
:10075A002A002A002A002400270024002A00240054
:10076A002400240024002A00270027002700240050
:10077A00240000000000020202000100020000033F
:10078A0002010700060005026C006C006C006A009A
:10079A006B006A006C006A006A0000000000030037
:1007AA00000201000000000700000503000000002D
:0607BA000600000402002D
:00000001FF
