:100000000C943E000C945B000C945B000C945B0021
:100010000C945B000C945B000C945B000C945B00F4
:100020000C945B000C945B000C945B000C945B00E4
:100030000C945B000C945B000C945B000C948904A2
:100040000C945B000C945B000C9422040C945B00F9
:100050000C945B000C945B000C94D9010C941B0273
:100060000C943F020C945B000C945B000C945B00BE
:100070000C945B000C945B000C945B0011241FBE7D
:10008000CFEFD8E0DEBFCDBF11E0A0E0B1E0E4ECFF
:10009000F9E002C005900D92AA3EB107D9F721E020
:1000A000AAEEB1E001C01D92AD3EB207E1F70E9499
:1000B000DD040C94E0040C94000008950895089564
:1000C0000895089508950895089508950895089548
:1000D00008950895CF93DF93E7E9F1E0CBE7D1E00E
:1000E00021E030E0A191B1914C91C901099002C089
:1000F000880F991F0A94E2F7482B4C9381E0E73A66
:10010000F80781F7DF91CF9108958BE480937C000D
:1001100083E880937A0080E880937B00089590E0E4
:10012000FC01EE0FFF1FE45BFE4F0190F081E02D1C
:100130004081DC01A75CBE4F21E030E00C9002C0A2
:10014000220F331F0A94E2F7611104C0422B40834F
:1001500081E0089520952423208380E00895282FAE
:1001600030E0F901EE0FFF1FED5EFE4F0190F081D0
:10017000E02D808190E0F901E050FF4F008002C047
:10018000959587950A94E2F7817008950C94AF00D5
:10019000282F30E0F901EE0FFF1FED5EFE4F0190BA
:1001A000F081E02DD901A050BF4F21E030E00C904C
:1001B00002C0220F331F0A94E2F7208300000C9440
:1001C000AF0090917C00907E90937C0090917C0099
:1001D000982B90937C0080E480937A0080917A0041
:1001E00084FFFCCF80917A00806180937A00209117
:1001F00079008091780090E0922B089593B18091DE
:100200006A0089238093EB0199B180916C00892366
:100210008093EA010895843021F099EF980F92308D
:10022000B0F55091690090E021E030E0611102C02A
:1002300020E030E0FC01E852FE4FB901008002C02E
:10024000660F771F0A94E2F721E030E0411102C007
:1002500020E030E0FC01EF51FE4F008002C0220F91
:10026000331F0A94E2F7262B252B209369004DB308
:10027000FC01E153FE4F21E030E0008002C0220F7C
:10028000331F0A94E2F7422B4DBB81E0089580E0D2
:100290000895843021F099EF980F923068F5A0917D
:1002A000690090E0FC01EF51FE4F21E030E0B90120
:1002B000008002C0660F771F0A94E2F7FC01E85243
:1002C000FE4FA901008002C0440F551F0A94E2F7B7
:1002D000462B40954A23409369004DB3FC01E153FE
:1002E000FE4F008002C0220F331F0A94E2F72095D0
:1002F00024232DBB81E0089580E0089590E0FC0167
:10030000EE0FFF1FE354FE4F0190F081E02D60815E
:10031000DC01AC54BE4F21E030E0A9010C9002C0DA
:10032000440F551F0A94E2F7642B6083E8E6F0E07F
:100330004081DC01A555BE4F0C9002C0220F331F37
:100340000A94E2F7422B40830C94FE0090E0FC01FB
:10035000EE0FFF1FE354FE4F0190F081E02D60810E
:10036000DC01AC54BE4F21E030E0A9010C9002C08A
:10037000440F551F0A94E2F740954623408340817D
:1003800041110FC040916800FC01E555FE4F00800F
:1003900002C0220F331F0A94E2F7209524232093F2
:1003A00068000C94FE000E94FE0078940895F89472
:1003B00008951F920F920FB60F9211242F933F931F
:1003C0004F935F936F937F938F939F93AF93BF935D
:1003D000CF93DF93EF93FF9393B1C0916A00809125
:1003E000EB01C923C8270E94FE00D0E0CE01880F90
:1003F000892F881F990B892B11F00E946000C6FD80
:100400000E946200C5FD0E946400C2FD0E9465005A
:10041000FF91EF91DF91CF91BF91AF919F918F911C
:100420007F916F915F914F913F912F910F900FBEF0
:100430000F901F9018951F920F920FB60F921124D4
:100440002F933F934F935F936F937F938F939F93DC
:10045000AF93BF93EF93FF930E946100FF91EF91E1
:10046000BF91AF919F918F917F916F915F914F91CC
:100470003F912F910F900FBE0F901F9018951F92D4
:100480000F920FB60F9211241F932F933F934F9308
:100490005F936F937F938F939F93AF93BF93CF930C
:1004A000DF93EF93FF9399B110916C008091EA0173
:1004B000192318270E94FE00C12F13FD0E945D0022
:1004C000C2FD0E945E00C1FD0E945F0010FD0E94FF
:1004D0006300FF91EF91DF91CF91BF91AF919F9119
:1004E0008F917F916F915F914F913F912F911F91CC
:1004F0000F900FBE0F901F90189581E08093D80049
:1005000082E18093E2008CE08093E30087E38093B4
:10051000E4008EEF8093DB001092DF008FE3809386
:10052000DE0080E0982F9295907F9093ED001092DE
:10053000EE001092EF008F5F8630A1F70895E8ED8E
:10054000F0E08081826080830895E8EDF0E08081B2
:100550008D7F80830895CF92DF92EF92FF920F9369
:100560001F932091F0006091F100C090F200009183
:10057000F30070E080E090E035E0660F771F881FA1
:10058000991F3A95D1F7269526952695622BD12C61
:10059000E12CF12C4DE0CC0CDD1CEE1CFF1C4A952F
:1005A000D1F76C297D298E299F2910E020E030E0C9
:1005B00055E1000F111F221F331F5A95D1F7602BF1
:1005C000712B822B932B1F910F91FF90EF90DF9057
:1005D000CF900895CF93DF9300D000D0CDB7DEB792
:1005E000E3E0660F771F881F991FEA95D1F76983AB
:1005F0007A838B839C838C818093F3008B8180939F
:10060000F2008A818093F10089818093F0000F903D
:100610000F900F900F90DF91CF910895CF93DF93BC
:1006200000D000D0CDB7DEB7F3E0660F771F881F8C
:10063000991FFA95D1F769837A838B839C838C8188
:100640008093F7008B818093F6008A818093F50078
:10065000898185608093F4000F900F900F900F9028
:10066000DF91CF91089580E090E02091DC0030E0B0
:10067000082E02C0359527950A94E2F720FD05C0A3
:1006800001968630910589F78FEF0895CF92DF921A
:10069000EF92FF920F93CF93DF9300D000D0CDB7AE
:1006A000DEB76B017C0129833A834B835C830E9414
:1006B00033038295807F8093ED00C701B6010E94CD
:1006C000EA0229813A814B815C81CA01B9010E9409
:1006D0000E03093008F008E000690093EF000F9066
:1006E0000F900F900F90DF91CF910F91FF90EF90AF
:1006F000DF90CF900895CF92DF92EF92FF92CF9349
:10070000DF9300D01F92CDB7DEB76B017C01298348
:100710004A835B830E9433038295807F8093ED0040
:100720001092EE00C701B6010E94EA024A81942F9E
:10073000E42F5B81F52F29818E2F891B821720F4EE
:1007400081918093FA00F8CF20652093EF000F90FD
:100750000F900F90DF91CF91FF90EF90DF90CF90AF
:100760000895EF92FF920F931F93CF93DF93CDB72E
:10077000DEB70DB71EB70E94AB024091EF004F707D
:10078000A42FB0E02DB73EB72A1B3B0B0FB6F89451
:100790003EBF0FBE2DBF2F5F3F4FF9017F01E21A11
:1007A000F30AEA16FB0624F45091FA005193F6CFAF
:1007B0000E9467008091EF0080688093EF000FB681
:1007C000F8941EBF0FBE0DBFDF91CF911F910F9107
:1007D000FF90EF900895EF92FF920F931F93CF93A6
:1007E000DF93CDB7DEB70DB71EB70E94AB024091C5
:1007F000EF004F70A42FB0E02DB73EB72A1B3B0B84
:100800000FB6F8943EBF0FBE2DBF2F5F3F4FF901CB
:100810007F01E21AF30AEA16FB0624F45091FA006B
:100820005193F6CF0E9468001092EF000FB6F89433
:100830001EBF0FBE0DBFDF91CF911F910F91FF9093
:10084000EF9008951F920F920FB60F9211242F93DD
:100850003F934F935F936F937F938F939F93AF9348
:10086000BF93CF93DF93EF93FF93CFB7D091ED007A
:100870008091EC00807F8093ED008091EE0085FFF9
:100880000DC08091EE008F7D8093EE008091EF008F
:100890008F738093EF000E94B1031CC08091EE0023
:1008A00086FF0DC08091EE008F7B8093EE008091DB
:1008B000EF008F738093EF000E94EB030BC0109248
:1008C000EE008091EF008F738093EF001092DA00BA
:1008D0000E946900D093ED00CFBFFF91EF91DF91AF
:1008E000CF91BF91AF919F918F917F916F915F91C8
:1008F0004F913F912F910F900FBE0F901F90189521
:1009000082E084BD95E095BD9BE997BD80936E0024
:1009100008951F920F920FB60F9211242F933F93B9
:100920004F935F936F937F938F939F93AF93BF93F7
:10093000EF93FF938091EC0191E0980F9093EC017D
:100940000E9466008091EC01823310F01092EC015D
:10095000FF91EF91BF91AF919F918F917F916F9197
:100960005F914F913F912F910F900FBE0F901F906D
:10097000189581E28093800081E18093810010923C
:10098000820080E29EE49093890080938800109218
:100990008B0010928A0010928700109286001092AD
:1009A0006F00089581322EE4920710F080E29EE4F9
:1009B00090938B0080938A0008950E946A00FFCF75
:0409C000F894FFCFD9
:1009C40003020107000600050200010704050603EF
:1009D40004000029002900290023002600230029FF
:1009E40000230023002300230029002600260026DC
:1009F400002300230000000000030201070006009A
:100A04000502000107040506030400002B002B0067
:100A14002B002500280025002B002500250025009B
:100A240025002B00280028002800250025000000B0
:100A34000000030201070006000502000107040587
:100A440006030400002A002A002A002400270024A8
:100A5400002A0024002400240024002A0027002760
:100A6400002700240024000000000002020200010C
:100A7400000200000302010700060005026C006C7E
:100A8400006C006A006B006A006C006A006A000077
:100A94000000000300000201000000000700000540
:0A0AA4000300000000060000040239
:00000001FF
