:100000000C943E000C945B000C945B000C945B0021
:100010000C945B000C945B000C945B000C945B00F4
:100020000C945B000C945B000C945B000C945B00E4
:100030000C945B000C945B000C945B000C945B00D4
:100040000C945B000C945B000C944B040C945B00D0
:100050000C945B000C945B000C94E4010C9426025D
:100060000C944A020C945B000C945B000C945B00B3
:100070000C945B000C945B000C945B0011241FBE7D
:10008000CFEFD8E0DEBFCDBF11E0A0E0B1E0E0EB04
:10009000F9E002C005900D92AC3EB107D9F721E01E
:1000A000ACEEB1E001C01D92AF3EB207E1F70E9495
:1000B000A9040C94D6040C940000089508950895A2
:1000C000089508950895089508950895089560E0A5
:1000D00089E00E949A0081E08093000108951092C7
:1000E000DA0081E08093EC010895CF93DF93E8E993
:1000F000F1E0CCE7D1E021E030E0A191B1914C9169
:10010000C901099002C0880F991F0A94E2F7482B91
:100110004C9381E0E83AF80781F7DF91CF91089599
:100120008BE480937C0083E880937A0080E880935E
:100130007B00089590E0FC01EE0FFF1FE35BFE4F94
:100140000190F081E02D4081DC01A65CBE4F21E0F2
:1001500030E00C9002C0220F331F0A94E2F76623AE
:1001600021F0422B408381E00895209524232083B1
:1001700080E00895282F30E0F901EE0FFF1FEC5EBC
:10018000FE4F0190F081E02D808190E0F901EF5F5A
:10019000FE4F008002C0959587950A94E2F7817022
:1001A00008950C94BA00282F30E0F901EE0FFF1FDC
:1001B000EC5EFE4F0190F081E02DD901AF5FBE4FA4
:1001C00021E030E00C9002C0220F331F0A94E2F7C6
:1001D000208300000C94BA0090917C00907E909354
:1001E0007C0090917C00982B90937C0080E480931D
:1001F0007A0080917A0084FFFCCF80917A00806140
:1002000080937A00209179008091780090E0922B81
:10021000089593B180916A0089238093EE0199B18A
:1002200080916C0089238093ED010895843021F042
:1002300099EF980F9230B0F55091690090E021E06D
:1002400030E0611102C020E030E0FC01E752FE4FD7
:10025000B901008002C0660F771F0A94E2F721E01F
:1002600030E0411102C020E030E0FC01EE51FE4FD1
:10027000008002C0220F331F0A94E2F7262B252BA1
:10028000209369004DB3FC01E053FE4F21E030E0C4
:10029000008002C0220F331F0A94E2F7422B4DBBAD
:1002A00081E0089580E00895843021F099EF980F5F
:1002B000923068F5A091690090E0FC01EE51FE4F8C
:1002C00021E030E0B901008002C0660F771F0A9478
:1002D000E2F7FC01E752FE4FA901008002C0440F83
:1002E000551F0A94E2F7462B40954A234093690034
:1002F0004DB3FC01E053FE4F008002C0220F331FBC
:100300000A94E2F7209524232DBB81E0089580E034
:10031000089590E0FC01EE0FFF1FE254FE4F0190A4
:10032000F081E02D6081DC01AB54BE4F21E030E074
:10033000A9010C9002C0440F551F0A94E2F7642BE8
:100340006083E8E6F0E04081DC01A455BE4F0C90EC
:1003500002C0220F331F0A94E2F7422B40830C9411
:10036000090190E0FC01EE0FFF1FE254FE4F0190E7
:10037000F081E02D6081DC01AB54BE4F21E030E024
:10038000A9010C9002C0440F551F0A94E2F7409552
:1003900046234083408141110FC040916800FC0119
:1003A000E455FE4F008002C0220F331F0A94E2F78B
:1003B00020952423209368000C9409010E940901D0
:1003C00078940895F89408951F920F920FB60F92A3
:1003D00011242F933F934F935F936F937F938F934A
:1003E0009F93AF93BF93CF93DF93EF93FF9393B11B
:1003F000C0916A008091EE01C923C8270E940901BB
:10040000D0E0CE01880F892F881F990B892B11F01E
:100410000E946000C6FD0E946200C5FD0E9464004B
:10042000C2FD0E946500FF91EF91DF91CF91BF91D6
:10043000AF919F918F917F916F915F914F913F917C
:100440002F910F900FBE0F901F9018951F920F9233
:100450000FB60F9211242F933F934F935F936F9397
:100460007F938F939F93AF93BF93EF93FF930E94DC
:100470006100FF91EF91BF91AF919F918F917F911B
:100480006F915F914F913F912F910F900FBE0F9001
:100490001F9018951F920F920FB60F9211241F9361
:1004A0002F933F934F935F936F937F938F939F937C
:1004B000AF93BF93CF93DF93EF93FF9399B11091D5
:1004C0006C008091ED01192318270E940901C12FAA
:1004D00013FD0E945D00C2FD0E945E00C1FD0E94EE
:1004E0005F0010FD0E946300FF91EF91DF91CF91BB
:1004F000BF91AF919F918F917F916F915F914F913C
:100500003F912F911F910F900FBE0F901F90189544
:1005100081E08093D8001092E50082E18093E200B0
:100520008CE08093E30087E38093E4008FEF809377
:10053000DB001092DF008FE38093DE0080E0982FD5
:100540009295907F9093ED001092EE001092EF0044
:100550001092F0001092F1001092F2001092F3004D
:100560001092F4001092F5001092F6001092F7002D
:100570008F5F863021F70895E8EDF0E0808182609A
:1005800080830895E8EDF0E080818D7F8083089579
:10059000CF92DF92EF92FF920F931F932091F00082
:1005A0006091F100C090F2000091F30070E080E0F3
:1005B00090E035E0660F771F881F991F3A95D1F7B5
:1005C000269526952695622BD12CE12CF12C4DE019
:1005D000CC0CDD1CEE1CFF1C4A95D1F76C297D2943
:1005E0008E299F2910E020E030E055E1000F111F17
:1005F000221F331F5A95D1F7602B712B822B932B1F
:100600001F910F91FF90EF90DF90CF900895CF93BF
:10061000DF9300D000D0CDB7DEB7E3E0660F771FE1
:10062000881F991FEA95D1F769837A838B839C830E
:100630008C818093F3008B818093F2008A81809378
:10064000F10089818093F0000F900F900F900F9030
:10065000DF91CF910895CF93DF9300D000D0CDB735
:10066000DEB7F3E0660F771F881F991FFA95D1F761
:1006700069837A838B839C838C818093F7008B8141
:100680008093F6008A818093F5008981856080934C
:10069000F4000F900F900F900F90DF91CF9108957D
:1006A00080E090E02091DC0030E0082E02C035951B
:1006B00027950A94E2F720FD05C001968630910542
:1006C00089F78FEF0895CF92DF92EF92FF920F9309
:1006D0001F93CF93DF9300D000D0CDB7DEB76B016F
:1006E0007C011091ED0029833A834B835C830E9447
:1006F00050038295807F8093ED00C701B6010E9470
:10070000070329813A814B815C81CA01B9010E94AA
:100710002B03093008F008E000680093EF00109305
:10072000ED000F900F900F900F90DF91CF911F91E0
:100730000F91FF90EF90DF90CF900895CF92DF92CE
:10074000EF92FF921F93CF93DF9300D01F92CDB70C
:10075000DEB76B017C011091ED0029834A835B8336
:100760000E9450038295807F8093ED001092EE00EE
:10077000C701B6010E9407034A81942FE42F5B81D1
:10078000F52F29818E2F891B821720F48191809368
:10079000FA00F8CF20642093EF001093ED000F9043
:1007A0000F900F90DF91CF911F91FF90EF90DF900E
:1007B000CF900895EF92FF920F931F93CF93DF9303
:1007C000CDB7DEB70DB71EB70E94C8024091EF004B
:1007D0004F70A42FB0E02DB73EB72A1B3B0B0FB6CE
:1007E000F8943EBF0FBE2DBF2F5F3F4FF9017F0131
:1007F000E21AF30AEA16FB0624F45091FA00519328
:10080000F6CF0E9466008091EF0080688093EF0031
:100810000FB6F8941EBF0FBE0DBFDF91CF911F9191
:100820000F91FF90EF900895EF92FF920F931F9317
:10083000CF93DF93CDB7DEB70DB71EB70E94C802C6
:100840004091EF004F70A42FB0E02DB73EB72A1BA8
:100850003B0B0FB6F8943EBF0FBE2DBF2F5F3F4F2F
:10086000F9017F01E21AF30AEA16FB0624F450911B
:10087000FA005193F6CF0E9467001092EF000FB676
:10088000F8941EBF0FBE0DBFDF91CF911F910F9146
:10089000FF90EF9008951F920F920FB60F921124C0
:1008A0002F933F934F935F936F937F938F939F9378
:1008B000AF93BF93CF93DF93EF93FF93CFB7D091D5
:1008C000ED008091EC00807F8093ED008091EE0040
:1008D00085FF0DC08091EE008F7D8093EE008091AA
:1008E000EF008F738093EF000E94DA031CC08091A9
:1008F000EE0086FF0DC08091EE008F7B8093EE00AE
:100900008091EF008F738093EF000E9414040BC05E
:100910001092EE008091EF008F738093EF001092A1
:10092000DA000E946F00D093ED00CFBFFF91EF91EE
:10093000DF91CF91BF91AF919F918F917F916F91F7
:100940005F914F913F912F910F900FBE0F901F908D
:1009500018950E9475003A9A60E089E00E949A001A
:1009600060E08AE00E949A000E9488020E94DE01F4
:100970000E94BC028091EC01882321F061E08AE0B2
:100980000E949A00809100018130A1F760E089E027
:100990000E949A0020E040E050E060E07FE08FE0BD
:1009A00090E00E949E0310920001E4CFF894FFCFE4
:1009B0000103020107000600050200010704050605
:1009C0000304000029002900290023002600230039
:1009D00029002300230023002300290026002600ED
:1009E0002600230023000000000003020107000688
:1009F000000502000107040506030400002B002B7C
:100A0000002B002500280025002B002500250025AF
:100A10000025002B002800280028002500250000C4
:100A200000000003020107000600050200010704A0
:100A30000506030400002A002A002A0024002700DB
:100A400024002A0024002400240024002A00270077
:100A500027002700240024000000000002020200FA
:100A600001000200000302010700060005026C00FD
:100A70006C006C006A006B006A006C006A006A001F
:100A80000000000003000002010000000007000059
:0C0A900005030000000006000004020046
:00000001FF
